:020000040800F2
:1000000078610020F5010008D1650008FD43000873
:10001000CD650008B90B000811750008000000004C
:10002000000000000000000000000000336E000827
:10003000010D000800000000176B0008356E000875
:100040000F0200080F0200080F0200080F0200084C
:100050000F0200080F0200080F0200080F0200083C
:100060000F0200080F0200080F020008A50C00088C
:10007000B10C00080F0200080F0200080F02000870
:100080000F0200080F0200080F0200080F0200080C
:100090000F0200080F0200080F0200080F020008FC
:1000A0000F020008B56E00080F0200080F020008DA
:1000B0000F0200080F0200080F0200080F020008DC
:1000C0000F0200080F0200080F0200080F020008CC
:1000D0000F0200080F0200080F0200080F020008BC
:1000E0000F0200080F0200080F0200080F020008AC
:1000F0000F0200080F0200080F0200080F0200089C
:100100000F0200080F0200080F0200080F0200088B
:100110000F0200080F020008C16E0008EB6E000815
:100120000F0200080F0200080F0200080F0200086B
:100130000F0200080F0200080F0200080F0200085B
:100140000F0200080F0200080F0200080F0200084B
:100150000F0200080F0200080F0200080F0200083B
:100160000F0200080F0200080F0200080F0200082B
:100170000F0200080F0200080F0200080F0200081B
:100180000F0200080F0200080F0200080F0200080B
:100190000F020008000000000F0200080F02000814
:1001A0000F0200080F0200080F0200080F020008EB
:1001B0000F0200080F0200080F0200080F020008DB
:1001C0000F0200080F0200080F0200080F020008CB
:1001D0000F0200080F020008DFF814D000F07CFBCB
:1001E00000F03EF800480047416B010800F0A0FB1A
:1001F000786100200648804706480047FEE7FEE792
:10020000FEE7FEE7FEE7FEE7FEE7FEE7FEE7FEE7C6
:10021000A36E0008D901000840EA01039B0703D040
:1002200009E008C9121F08C0042AFAD203E011F835
:10023000013B00F8013B521EF9D27047D2B201E0F7
:1002400000F8012B491EFBD270470022F6E710B5DB
:1002500013460A4604461946FFF7F0FF204610BD34
:100260007CB507480090074801900546009C04E0D3
:100270002046016808448047241DAC42F8D17CBD6B
:10028000BCF30108C8F301080B460146184600F00C
:100290003BBA2DE9FE4F804681EA0300C00F0C46B1
:1002A000009021F0004123F00045B8EB0200A94185
:1002B00005D24046214690461C460B46024623F096
:1002C0000040104347D0270DC7F30A00C3F30A517B
:1002D0000290401A019040286BDAC3F3130040F4F7
:1002E000801B0098924620B10023D2EB030A63EBF7
:1002F0000B0B01985946C0F14002504600F0E2F95C
:1003000006460D4650465946019A00F0EAF910EBB0
:1003100008006141002487EA115284EAE7731A4316
:1003200040D0009A62B3019A012A4FEA075215DCC5
:10033000001B61EB02014FF0004202EA0752CDE9D7
:100340000042001C41F5801132462B4600F046FA6F
:1003500003B0BDE8F08F40462146F9E7001B61EB92
:100360000201001C41F5801300185B412018A2F522
:10037000001747EB030140EAD570B6196D4111E053
:100380006D084FEA360645EAC0754FEA0752001B72
:1003900061EB0201001C41F5801149084FEA300071
:1003A0000019514132462B4603B0BDE8F04F00F032
:1003B00006BA0098012240000023D0EB020263EB52
:1003C000E073009821464FEAE074B8EB000061EB5F
:1003D0000401E9E783F000435BE781F0004158E75F
:1003E0002DE9FE4F81EA030404F0004421F00041AE
:1003F00000944FF0000B23F0004350EA01045ED05C
:1004000052EA03045BD0C3F30A54C1F30A552C44E7
:10041000A4F2F3340194A0FB0254C1F3130141F49C
:100420008011C3F3130343F4801301FB024400FB68
:10043000034E840A970A44EA815447EA8357A4FB8F
:10044000076802958D0A05FB07854FEA932C04FB8C
:100450000C542705029D4FEA065847EA1637B5EBBC
:1004600008056EEB070C870E920E47EA811742EAE9
:100470008312A7FB0201B6EB0B0164EB00042B0D0A
:1004800043EA0C335E1844EB1C50DA465146E7FB56
:100490000201C5F313044FEA0B3343EA14534FEA46
:1004A0000432019C43EA0603A4F10C040294009C6C
:1004B000CDE900B400F092F903B0BDE8F08F002060
:1004C0000146F9E72DE9F04D81EA030404F0004B01
:1004D00021F0004514464FF0000A23F0004150EA95
:1004E000050220D054EA01021DD0C5F30A57024686
:1004F000C5F31303C1F31300C1F30A5640F480158A
:1005000043F48013A7EB0608101BD64608F2FD380B
:1005100073EB050002D308F1010801E092185B417A
:10052000B8F1000F03DA00200146BDE8F08D00208D
:100530004FF48011064684460EE0171B73EB050747
:1005400005D3121B63EB050306434CEA010C490873
:100550004FEA300092185B4150EA0107EDD152EAB0
:10056000030012D082EA040083EA0501084305D0A3
:10057000101BAB4106D20122002306E000224FF0FF
:10058000004302E06FF0010253101AEB06004CEB3F
:10059000085110EB0A0041EB0B01BDE8F04D00F0F3
:1005A0000EB930B5041E71F1000404DB4FF00044B5
:1005B000404264EB0101141E73F1000405DB1C468C
:1005C0004FF00043524263EB0403101A8B4101D3F6
:1005D000012030BD002030BD00F0004230F000406E
:1005E0000AD0C10D01F56071C0F3160042EA015155
:1005F000C20840071143704700200146704701F0D0
:10060000004330B421F0004150EA010206D00A0D47
:10061000A2F56072C1F31301002A02DC30BC002095
:100620007047440F44EAC104C100E01830BC00EB3D
:10063000C25000F08DB830B50B4601460020202294
:10064000012409E021FA02F59D4205D303FA02F5DF
:10065000491B04FA02F52844151EA2F10102F1DC3F
:1006600030BD2DE9F05F0546002092469B46884646
:100670000646814640241BE028464146474622461E
:1006800000F042F953465A46C01A914110D3114620
:100690001846224600F016F82D1A67EB01084F465F
:1006A00022460120002100F00DF817EB00094E4111
:1006B000201EA4F10104DFDC484631462A464346A9
:1006C000BDE8F09F202A04DB203A00FA02F1002066
:1006D00070479140C2F1200320FA03F31943904080
:1006E0007047202A06DBCB17203A41FA02F043EA92
:1006F000E07306E041FA02F3D040C2F120029140DB
:1007000008431946704700002DE9F0410746154699
:100710000E46102016F0DEFF040013D06760C4E917
:1007200002650948AFF3008000F0FEF8016821601F
:1007300006490460002008600348AFF300800020F1
:10074000BDE8F0810120FBE73D6B010810000020AF
:100750000029A8BF7047401C490008BF20F00100D5
:10076000704710B4B0FA80FC00FA0CF050EA0104B3
:1007700004BF10BC704749B1CCF1200421FA04F445
:1007800011FA0CF118BF012121430843A3EB0C011E
:10079000CB1D4FEA00614FEA102042BF002010BC81
:1007A000704700EBC35010440029A4BF10BC704731
:1007B000401C490008BF20F0010010BC704710B574
:1007C000141E73F1000408DA401C41F10001921874
:1007D0005B411A4301D120F0010010BD2DE9F04D1D
:1007E00092469B4611B1B1FA81F202E0B0FA80F272
:1007F00020329046FFF766FF04460F4640EA0A00A3
:1008000041EA0B0153465A46084313D0114653EAB6
:10081000010019D0C8F14002504600F075F80546B5
:100820000E46504659464246FFF74CFF084305D056
:10083000012004E020463946BDE8F08D0020054344
:1008400046EAE0762C4337430A986305E40AA0EBB6
:1008500008000022FD0A44EA47540A3002D500206D
:100860000146E9E7010510196941DDE9084500196C
:100870006941BDE8F04DA2E7C1F30A52C1F313018B
:1008800040F2FF3341F480119A4202DA002001461F
:10089000704740F233439A42A2F2334202DC5242A2
:1008A00000F032B8FFF70EBF30B5041E71F100043E
:1008B00004DB4FF00044404264EB0101141E73F16D
:1008C000000405DB1C464FF00043524263EB040377
:1008D000994208BF904230BD1CB5094800900948B4
:1008E00001900546009C06E0E06840F0010394E8B2
:1008F000070098471034AC42F6D3FFF771FC0000B4
:10090000D0F20108F0F20108202A04DB203A21FA93
:1009100002F00021704721FA02F3D040C2F1200218
:100920009140084319467047004870470C0000206A
:100930002DE9F84306461548AFF30080FFF7F4FFB2
:1009400081464D46E846124F16E026B1E068B042B7
:1009500001D0254610E0206828600C48C7F80080C8
:10096000AFF30080D4E9010188470848AFF3008065
:100970003968414500D04D462C68002CE5D1002057
:1009800038600248AFF30080BDE8F8833D6B010892
:1009900010000020704770B58C1810F8015B15F03E
:1009A000070301D110F8013B2A1106D110F8012BE1
:1009B00003E010F8016B01F8016B5B1EF9D12B0706
:1009C00005D40023521E0DD401F8013BFAE710F8BC
:1009D000013BCB1A921C03E013F8015B01F8015BA9
:1009E000521EF9D5A142D8D3002070BD0146806ABD
:1009F000C36DC26D13F0500F07D0D20648BF00F090
:100A00003ABC406D426B0846104742F40071C16524
:100A100001680B68CA681B0703D4910707D500F06B
:100A200028BC12F4406FFAD1C9688904F7D4C16DAB
:100A300021F48071C165C16DC90448BF00F019BCC3
:100A4000C16D41F00101C16500F013BC806AC16D48
:100A500041F04001C165016E41F00401016600F002
:100A60000ABC806A00F006BCB0B5016804468A681A
:100A70008868C0074FF0000031D012F0020218BFA2
:100A8000B0BD886800F00D0001281FD188684FF6BE
:100A9000C072C7F6FF721040023088600320086001
:100AA00001F01EFC21688968C9070DD0054600BF0A
:100AB00001F016FC411B2068032902D38168C90795
:100AC00004D18068C007F3D10020B0BDE06D40F0D4
:100AD0001000E065206E40F0010020660120B0BDEE
:100AE00070B582B004460020019021688A68D20760
:100AF00045D14FF6C076C7F6FF76886806F17F02CB
:100B0000104209D0E06D40F01000E065206E40F02A
:100B100001002066012032E088684FF4C162304055
:100B200040F00100886040F20010C5F200008142F0
:100B300008BF4FF40272B1F1A04F08BF4FF4027228
:100B4000105800021DD401F0CBFB21680A68D207BF
:100B500014D105468868C00704D18868304040F049
:100B60000100886001F0BCFB401B2168032802D310
:100B70000868C007C6D00868C007EBD0002002B0E4
:100B800070BD43F22000C2F20000006842F66351DB
:100B90008009C0F23E51A0FB0101880900EB400032
:100BA0000C2101EB800000BF019001980028CAD001
:100BB00001980138F8E70000FEE70000B0B5304AC0
:100BC0004CF24025136823F0010313602D4A4FF6C1
:100BD000F07314681C40AC4205D0146823404CF2FA
:100BE0007024A3422BD12B4A126832B12B4A012325
:100BF00093609368002BFCD11AE0274A13686FF3C7
:100C00001F33B3F58A6F0DD0136840F283446FF33E
:100C10001F33A34206D0126840F285436FF31F32A0
:100C20009A42E3D11E4A012393609368002BFCD1C2
:100C300010601068401AB0FA80F04009B0BD146826
:100C40004FF6F0734DF220251C40AC4205D01268DF
:100C50001A404DF230239A42C8D10B4A0B4CD2F8BD
:100C6000F833A3420AD1D2F8FC33094CA34205D190
:100C7000012393609368002BFCD1D9E70020B0BD1D
:100C8000002000E000ED00E0004C024601001700EB
:100C900001DDC5A3002004E00010005C003002402C
:100CA000004C025845F22C40C2F2000001F0EFB8AF
:100CB00045F28C40C2F2000001F0E9B870B5D0E90D
:100CC00013C4D0F854E0CCF80440BEF1000F1CBFB0
:100CD000D0E9164CC4F804C0D0E910CE0468866888
:100CE0000EF01F00012505FA00F0CCF804000846BC
:100CF0006360102E04BF10460A46A060E26070BD1B
:100D000070470000EFF3108072B600BFFEE70000EE
:100D1000B0B582B004460020019094F85800012834
:100D200001D102203BE0012084F8580020460D4606
:100D3000FFF79AFEE16D10B141F010012BE041F296
:100D4000021291430231E16521684FF6C0738A684F
:100D5000C3F6FF731A4005F080431A4402F10042C3
:100D60008A604DF60262C0F2040200BF8B68B3F1E4
:100D7000FF3F0CDC019B01330193019B9342F5D3B0
:100D8000E06D40F0100020F00201012003E0E16D71
:100D9000012262F30101E165002184F8581002B0DC
:100DA000B0BD90F85820012A01D1022189E070B528
:100DB00082B0002201920092026840F2080CC5F253
:100DC000000CB2F1A04F0CF1F80508D040F200433E
:100DD000C5F200039A4232D10CF59F6300E02B4626
:100DE0009B68946823435B0729D44FF4E063D1F8F0
:100DF00000E0AA4208BF4FF44073B2F1A04F08BF11
:100E00004FF440735CF80340BEF1000F24F46044DB
:100E10001BD04D6890F8386042F4807245EA463540
:100E20002C4340F20015C5F20005AA424CF80340DD
:100E30001BD1DCF80020DCF8004122431DE0C16D2D
:100E400041F02001C165012135E042F4807140F29A
:100E50000012C5F2000291424CF8034019D1DCF8AF
:100E60000010DCF8002111431BE0DCF80024DCF862
:100E70000045DCF8005622432A43D2071AD15CF819
:100E8000032040F61F748968A243114341EA0E0112
:100E90000EE0DCF80014DCF80025DCF800661143F5
:100EA0003143C90706D15CF8031040F61F72914325
:100EB0004CF803100021002280F8582002B0BDE851
:100EC0007040084670470000F0B581B000220092E3
:100ED00090F85820012A01D10221C7E101230768B7
:100EE00080F85830BB685B0734D4D1E900351F2641
:100EF000C5F3012407EB8404226B05F01F05AE4007
:100F0000C3F38463B243AB401A432263BA68BB683D
:100F100002F0040203F00803D21840F0BC800A6813
:100F200007F114030426C2F34064D1F808E006EA8E
:100F3000D25C53F82440C2F304550722AA40BEF104
:100F4000004F24EA02040BD143F80C401A6842F027
:100F500000430DE0C16D41F02001C165012182E136
:100F60000EFA05F2224343F80C201A6822F00043DF
:100F70007B61D1E90435FC68042B5FD13A6E3A6E8F
:100F80000B68C2F3846293FAA3F6C3F3846C6FF325
:100F9000DF43B6FA86F5002B2C464FF6FF7E08BFDE
:100FA0006446A242C0F2070E0CD13A6E22F0004213
:100FB0003A660A6802EA0E03C2F3846C92FAA2F25D
:100FC000B2FA82F57A6E7A6E002BC2F384622C46F6
:100FD00008BF6446A2420CD17A6E22F000427A66C3
:100FE0000A6802EA0E03C2F3846C92FAA2F2B2FA21
:100FF00082F5BA6EBA6E002BC2F384622C4608BF2B
:101000006446A2420CD1BA6E22F00042BA660A6867
:1010100002EA0E03C2F3846C92FAA2F2B2FA82F5EB
:10102000FA6EFA6E002BC2F3846208BF6546AA42CC
:1010300031D1FA6E22F00042FA662CE0062202EA72
:10104000940205FA02FC0E6807F1600555F823408A
:101050004FF20002C0F2FF3206F0F846224046EAA4
:101060000C06324342F0004245F823200A698B699E
:1010700055F8226026F08076334345F822300A691D
:101080000B7F55F82260012B26F0007608BF06F191
:10109000007645F82260BA680D68D2074FD1CA6859
:1010A000D7F8B0602B466FF3DF4326EA030C4FF608
:1010B000FF7602F01804C0F20706E64000242E4036
:1010C000C4F27F0446EA0C06A242C7F8B06036D1EB
:1010D0008BB195FAA5F2B2FA82F2013202F01E0348
:1010E000092B02F01F030FD801229A4003EB4303A0
:1010F00042EA035314E0012202EB956202F01E0360
:101100000A2B02F01F03EFD3012200269A4003EBC3
:101110004303CFF6206606EB03531A4342F00073F5
:10112000C3F3406607EB86068A687569C3F3045308
:1011300007249C40A5439A402A4372610D68002110
:10114000C8F208010D4200F08D8040F2001EC5F289
:10115000000E4FF4C161774508BF4FF40271B7F13B
:10116000A04F08BF4FF4027151F80E400022CCF29C
:101170002132954204F0E07C04D01022C9F2C00272
:1011800095422ED122026DD440F20062C5F20002D7
:10119000974202D0B7F1A04F64D15EF8012022F04F
:1011A000E07242EA0C0242F400024EF8012043F2DF
:1011B0002001C2F20001096842F663528909C0F2B7
:1011C0003E52A1FB0212910901EB41010C2202EBFC
:1011D000810100BF00910099002943D00099013995
:1011E000F8E70021CCF252718D4213D10021B1EB0E
:1011F0001C6F0FD1B7F1A04F20D0774533D040F20C
:101200000052C5F2000297422DD0774516D00EF558
:10121000C06115E00021CCF684318D424FF0000111
:1012200008BF14F480021ED1B7F1A04F10D077454B
:1012300019D077450CD00EF5C0610BE00EF50071AA
:101240008A6822F0E07242EA0C0242F0807208E002
:101250000EF500718A6822F0E07242EA0C0242F454
:1012600080028A600021002280F85820084601B0E0
:10127000F0BD704770477047B0B582B0044600209B
:10128000002C019041D0E06D30B9204600F00CF9FF
:101290000020206684F858002168886880004FF696
:1012A000C070C5F6FF7002D58A6802408A608A68FD
:1012B000D2001DD48A6800F18050104040F0805068
:1012C000886043F22000C2F20000006842F66352D8
:1012D0008009C0F23E52A0FB02029009022202EBFA
:1012E000400000BF0190019810B101980138F9E762
:1012F0008868C0000BD4E06D40F01000E065206EFF
:1013000040F001002066012002E00120CAE0002038
:101310008A68E36D02F0040203F01003D218E26D54
:1013200018D122F481720232E2658A68D20737D17D
:1013300040F2001341F48072C5F2000340F2080C41
:101340009A42C5F2000C09D1DCF80030DCF800212B
:1013500013430CE042F010010120A2E0DCF800E4AD
:10136000DCF80035DCF8002643EA0E031343DA0705
:1013700016D10CF1F8024FF4E063D4F804E0914286
:1013800008BF4FF44073B1F1A04F08BF4FF4407352
:101390005CF8032022F47C1242EA0E024CF803208F
:1013A00094F81DE0E36BD4E902C243EA4E331A43DA
:1013B00094F8243042EA0C02012B42EA034207D19E
:1013C000D4F828C00023CFF6FE7303EB4C431A4336
:1013D000E36A33B1D4F830C003F4787343EA0C0302
:1013E0001A43D1F80CC044F20703CFF6F07303EAB6
:1013F0000C031A43CA600A69636B22F040621A4305
:101400000A618A6812073ED494F83820237F52007C
:1014100042EA833CCB6844F2020223EA020242EA37
:101420000C02CA6022690B6952B143F480330B612C
:10143000D1F8C0C043F6FF732CEA03031A4307E058
:1014400023F480320A61D1F8C02043F6FF739A4337
:10145000C1F8C02094F840300A69012B10D140F245
:10146000FD7322EA030CD4E91132D4E913E543EA0F
:101470000C031A4342EA0E022A4342F0010201E041
:1014800022F001020A6162690B6B012A23F00F024C
:1014900002D1236A013B1A430A63E16D012262F320
:1014A0000101E16502B0B0BDF0B59BB0044616A8DD
:1014B0001421FEF7CAFE01A85421FEF7C6FE2068DB
:1014C00040F20051C5F20001884267D0B0F1A04F50
:1014D00040F094804FF4004001904FF00050129083
:1014E00001A801F047F908B1FFF70CFC41F24C00EC
:1014F000C4F20200016816AD41F4005101600168B8
:10150000032701F40051009100990168002641F081
:1015100001010160016801F0010100910099016879
:1015200041F0020101600068294600F002000090CD
:1015300000984FF09040CDE91677189600F0DEFD48
:101540000120CDE9160740F20040C4F6000029460C
:10155000189600F0D3FD45F22C450820C2F2000594
:10156000C4F2020005214FF4807385E8430005F1C1
:1015700014004FF480674FF0200C80E888104FF47F
:101580000050802228622846C5E9036200F0CCFCA6
:1015900008B1FFF7B7FB6565AC622FE04FF4803010
:1015A00001904FF00040139001A801F0E3F808B15A
:1015B000FFF7A8FB41F24C00C4F20200016841F4BD
:1015C00080410160016801F4804100910099016847
:1015D00041F002010160006816A900F002000090CD
:1015E00000984FF480501690032017900020189018
:1015F00040F20040C4F6000000F080FD1BB0F0BDDA
:101600002DE9F041044640F200170068C5F20007DA
:101610004FF4C163B84208BF4FF40273B0F1A04F5A
:1016200008BF4FF40273DB5986689046720704D4F2
:101630000E4694F85810012902D10220BDE8F0812D
:1016400007F5A06203F01F050121904284F85810AD
:1016500018BF002D16D12046FFF742FAB0B9216815
:10166000E06D40F60172904300F58070B942E0658C
:1016700012D040F20050C5F20000814212D107F5AD
:1016800040700BE0052DE6D0092DE4D0002084F851
:1016900058000120BDE8F0814FF0A040884218BFFB
:1016A000002D03D1E06D20F48010E065E06D40F680
:1016B000ED13C0044FF0000044BF206E20F0060080
:1016C0002066606D40F66327C0F60003C0F6000791
:1016D00040F64D250022C0F60005C0E90B371C235B
:1016E00045630B6084F858204A68434642F0100274
:1016F0004A60CA6842F00102CA604031324600F0D6
:10170000A5FC21684FF6C0738A68C7F6FF731A40BC
:1017100004328A60BDE8F08100680068C0F3807020
:101720007047000070B582B0044600200190ECB311
:1017300020680168002939D4617F31B90020207701
:101740002062204600F0D2F82068261DD0F800C0A4
:101750004CCED4E904511A431143026847F60F6393
:101760003143CFF6007329431A40114301600168E9
:1017700009021DD51CF400011AD143F22001C2F266
:101780000001096842F663528909C0F23E52A1FB8A
:101790000212910901EB8101142202EB810100BFC9
:1017A0000191019921B101990139F9E701209BE0EB
:1017B000A0F18041A1F581314FEAB10240F2004130
:1017C000052AC4F2010106D248F24023C0F6010303
:1017D00053F8222005E0A1F5F6730222984208BFD3
:1017E0000122A36940F2142C40F2182E9D07C4F286
:1017F000010CC4F2010E08D0DE0614D4704501D0ED
:10180000604518D18E6A964313E0604501F12403C8
:1018100002D0704518BF0B1D1D68704525EA0205F2
:101820001D6049D14AE0704501D0604506D18E6AFD
:1018300016438E6205E08E68964301E08E6816437B
:101840008E609E0606D4704501D060450AD1CE6AEE
:10185000964305E0704501D0604506D1CE6A164337
:10186000CE6205E0CE68964301E0CE681643CE60B6
:10187000604501F1340603D0704518BF01F114062C
:10188000002D326006D4704501D060450AD14D6A02
:10189000954305E0704501D0604506D14D6A15437A
:1018A0004D6205E04D68954301E04D6815434D607C
:1018B000DB0706D1704501D060450AD1086A904324
:1018C00005E0704501D0604506D1086A1043086202
:1018D00005E00868904301E0086810430860607FF5
:1018E00008B901206077002002B070BD10B586B045
:1018F000044601A81421FEF7A8FC206840F200214C
:10190000C4F20101884219D141F24C00C4F2020034
:10191000016841F002010160006801A900F00200C5
:101920000090009802200190032002900020039074
:1019300040F20040C4F6000000F0E0FB06B010BD2D
:1019400081B00021009108B301680A68002A1DD403
:10195000427F012A1AD10A6842F001020A6002217C
:10196000417743F22000C2F2000000684DF6836127
:10197000C4F21B31A0FB0101C80C00EB800000BFCA
:101980000090009828B100980138F9E7012001B0D3
:1019900070470020FBE70000CB0704BF0120704721
:1019A00080B54FF01F0E00BFBEF1000F08D0AEF1A2
:1019B000010E0EF01F0321FA03F3DB07F4D001E060
:1019C0004FF0FF3E4FEAF20CBCF1030F0AD8DFE8FC
:1019D0000CF00E02060BBEF10F0F03D807E0BEF1AC
:1019E000070F04D9012080BDBEF1060FFAD80068A8
:1019F0004161816821F0180111438160002080BDA0
:101A0000A0B110B50446407F20B9002020772046C1
:101A100000F030F802206077207948B1D4E9021252
:101A20002046FFF7B9FF68B1012010BD01207047C3
:101A3000206841F6B751C0F2C1414161816821F08F
:101A4000180181606079002814BF20694FF0FF30D1
:101A50002168D4E905230861886820F060001043FC
:101A60008860886820F080001843886001206077D3
:101A7000002010BD006843F20001C4F20201884258
:101A800018BF704781B041F24800C4F202000168FB
:101A900041F480510160006800F48050009000988B
:101AA00001B07047704700002DE9F041044600285E
:101AB0004FF0010000F0DD800D46002900F0D980D4
:101AC000607901284FF0020000F0D380A968164623
:101AD000012204296271207119D100F001FC2168F2
:101AE0004A6B0746AEB1B2F1FF3F0DDC00F0F8FBE8
:101AF000C01B2168022804D3486BB0F1FF3F40F3BC
:101B0000BA80486B0028F1D4686A486413E0216801
:101B100026E010040DD500BF00F0E2FBC01B2168D9
:101B2000022803D3486B000400F1A580486B000431
:101B3000F2D4686A0864886C06F0100240F2FF3341
:101B4000D5E90A7C9340984307FA02F31843886466
:101B5000C86CFF23934098430CFA02F21043C86408
:101B6000E86901280CD1886B06F010081F222B6A47
:101B700002FA08F2904303FA08F21043886301E086
:101B800006F01008D1F83CC0A969012904D0022947
:101B900005D14FF0010E07E04FF0000E04E0696937
:101BA000B1FA81F14FEA511EAA686B692E7940F2B1
:101BB000073742EA0E0207FA08F0697942EA03079A
:101BC000012E08BF47F48077012908BF47F400774A
:101BD0006FF4404229685040022900EA0C060AD1FD
:101BE00001F03EF846F60101C0F68911884204D39F
:101BF00046F4004609E00E4307E04BF20041C0F214
:101C0000C441884288BF46F4804607FA08F120683C
:101C10003143C1634FF48041026801FA08F122EABE
:101C200001010160016840F6FE72D5E9033702FA4E
:101C300008F2914303FA08F211430160C0210268DF
:101C400001FA08F122EA01010160C3F3830107F000
:101C50003C0241EA8211026E40F60F7303FA08F368
:101C60009A4301FA08F11143016601202071002016
:101C70006071BDE8F081206940F008002061032018
:101C80002071BDE8F081704770B5044600680668B1
:101C9000456BB10412D515F400510FD00421217108
:101CA000216941F0010121614FF400514163016854
:101CB00021F4805101602046FFF7E5FFB00058BFD6
:101CC00070BD15F0005012D004202071206940F042
:101CD0000200206121684FF000504863086820F03E
:101CE000805220460A60BDE87040FFF7DBBE70BD41
:101CF00078B110B50446007920B900206071204603
:101D000000F009F8022020710020012120612171DA
:101D100010BD0120704710B586B0044601A81421FB
:101D2000FEF793FA206841F20001C5F200018842F3
:101D300030D040F60001C5F20001884228D141F2BE
:101D40004C00C4F20200016841F480310160016876
:101D500001F4803100910099016841F001010160B6
:101D6000006801A900F00100009000983020019067
:101D700003200290002003904FF0904000F0BEF945
:101D800036200021002200F040FC362000F02DFC1F
:101D900006B010BD41F24C00C4F2020001680022FE
:101DA00041F4802101600068002100F4802000904F
:101DB0000098362000F029FC362006B0BDE810401F
:101DC00000F013BC81B04FF0000CCDF800C098B10A
:101DD000D0F800C00029DCF83C00CDF800C04FF07E
:101DE0001400DDF800C008BF0820104460440090D3
:101DF00000980360002000E0012001B0704700005F
:101E000040B34279012A4FF002023ED010B581B0B2
:101E10004FF0010E80F805E00271026801F0100C2D
:101E200013680EFA0CF42343136043F22003C2F24A
:101E300000031B6842F663549B09C0F23E54A3FBA7
:101E400004340EEB941300BF0093009B23B1009B5E
:101E5000013BF9E7012218E0136839B1022103F4CC
:101E6000781301FA0CF4A34205D007E003F03E0119
:101E7000022903D101215368194351600121002235
:101E80000171427101B0BDE8104010467047B0B515
:101E9000D0E910C30268DCF8001003F01F0304242B
:101EA000D2F800E09C400C4218BF1EF004051AD185
:101EB00002249C400C4218BF1EF002051FD1D940DD
:101EC00009071BD51EF0080118D0116821F00E017A
:101ED0001160012101FA03F2CCF80420C16380F8FB
:101EE0002510416B18E01168890603D4116821F0B0
:101EF00004011160CCF80440016B91B9B0BD1168C8
:101F0000890606D4116821F00A011160012180F8C8
:101F10002510CCF80440C16A0022002980F8242052
:101F2000ECD0BDE8B040084700284FF0010100F0B8
:101F30008B802DE9F04740F2000CC4F2020C0268DD
:101F40004FF6F8330CF5816ECBF6FD73724538BF52
:101F500003F580634CF6CD441344CCF6CC44A3FB8C
:101F6000043902F0FC03A3F10803A3FB043A0CF5C7
:101F700080636FF00305D0E9028607693CBF002348
:101F8000C4F2020305EA9905C0E91035022380F87E
:101F90002530136847F6F074A343334344693B4349
:101FA00086692343C4693343066A2343334343EAC0
:101FB000080313600CF50263724538BF0CF500632B
:101FC00072454FF0080202EB1A1238BF4FEA1A129C
:101FD00002F01F0201FA02F440F684011D440CF5E0
:101FE0000863B8F5804FC4F20201C36485640465D8
:101FF00004D1002242602A600C6017E0426802F0BF
:102000007F03013A032A4FF000022B600C600DD8C9
:10201000013B01EB830747F87C2F03F01F020123EC
:102020009340C1F8C030BC313A4601E000210023A2
:10203000C0E9152100210122C365C16380F8252074
:1020400080F82410BDE8F0470846704710B50446F4
:1020500090F82400012820D0012084F8240094F86E
:102060002500012816D1022084F825000020E06315
:10207000D4F800C0DCF8000020F00100CCF800002B
:102080002046FEF71BFE2068226B01683AB141F042
:102090000E010AE0002084F82400022010BD21F087
:1020A00004010160016841F00A010160A16C0A6845
:1020B000D20303D50A6842F480720A60616D19B1D7
:1020C0000A6842F480720A60016841F0010101600F
:1020D000002010BDB0B5044600F002F9054643F2F9
:1020E000F800C2F200000068611C18BF044400BF81
:1020F00000F0F6F8401BA042FAD3B0BD2DE9F04F36
:1021000085B00E680390002E00F0E180039841F244
:10211000004500F12002009200F13842C4F60005AB
:102120004FEAB2270623A84208BF0523052F4FF028
:1021300000054FF000074FF0000838BF4FEAB22308
:1021400001930291012000FA08F216EA020900F058
:10215000B380D1F804A003200AF0030CACF101060F
:10216000012E00FA07FB13D803988668D1E90243D1
:1021700026EA0B06BB4033438360436823EA02022E
:10218000CAF3001303FA08F31A43426006E000BFE3
:102190008C68BCF1030F08BF012C27D0039904FA07
:1021A00007F3CA684FEA480E22EA0B026FEA0B00F7
:1021B0001A43BCF1020FCA601ED16FF00301009EEA
:1021C00001EA580205F01C040F2156F802C001FA7A
:1021D00004FA02992CEA0A0C0B69A34043EA0C03A7
:1021E000B350D1F804A00AF0030C05E04FF0030C43
:1021F0000CFA07F2D043BE4603990CFA0EF30A68B4
:102200001AF4403F02EA000242EA03020A6002991D
:1022100052D041F26003C4F202031A6840F2004E49
:1022200042F001021A601A68C4F2010E02F00102C3
:102230000492049A28F003024FF6084C7244CFF639
:10224000FF7C05F00C060F2052F80C3000FA06F463
:102250000198A34300FA06F6334342F80C30DEF847
:1022600008204B6842EA090640F20C4CDC0258BFD9
:1022700022EA0906CEF80860C4F2010CDCF800205E
:102280009C0242EA090658BF22EA0906CCF800601F
:10229000DEF804209C0342EA090658BF22EA090638
:1022A000CEF80460DEF80020DB0342EA090658BFDE
:1022B00022EA0906CEF800600E6808F1010836FA35
:1022C00008F207F1020705F104057FF43BAF05B002
:1022D000BDE8F08F1823002A08BF2823C15070479B
:1022E00045F67400C2F200000068704743F2F8003F
:1022F00045F67401C2F20000C2F2000100680A68EB
:1023000010440860704780B5032000F0A9F90F2041
:1023100000F007F808B1012080BD00F04CF9002062
:1023200080BDB0B586B041F25801C4F202010A681E
:10233000044642F020020A60096801A801F0200169
:1023400001910199694600F06AFC00F08FFC4DF69E
:102350008361C4F21B31A0FB01014FF0FF3000EBA1
:10236000914145F2D06041F20042C2F20000C4F255
:10237000000240F2E7330025C0E90021C0E9025322
:10238000056101F06DFA30B945F2D060C2F200008B
:1023900001F0CFFA18B10546284606B0B0BD372087
:1023A00000F023F90F2C0BD83720214600220025FE
:1023B00000F02BF943F2FC00C2F200000460EBE7EE
:1023C0000125E9E7022280F83620D0F800C0C26873
:1023D000DCF80C3023F006031A43CCF80C20DCF8B0
:1023E0000C2042F08072CCF80C20DCF8102042F077
:1023F0000102CCF810201022CCF80420CCF81810E0
:1024000043F22001C2F20001096841F25972CDF293
:10241000B712A1FB0212910B4FF47A725143C1F132
:1024200001030021002B08BF0321DCF8002023B1A9
:1024300012F0100203F10103F4D0C9B2032904BF62
:1024400003207047DCF8101041F00401CCF81010A4
:10245000012180F8361000207047D8B32DE9F041F3
:10246000044690F8360028B9002084F8350020464C
:1024700000F05AF8022084F83600D4E900C3D4F8FA
:1024800028E0DCF80C00012B04D0BEF5000F03D1CE
:102490004FF4000E20F01E006269A168D4E90856CE
:1024A0004FF6FF7741F23E18BA424FF2FE17CDF6D3
:1024B000197818BF00EA0800CFF619772943384089
:1024C0003143084340EA0E0033B1012B43EA0003D5
:1024D00007D109E0012070472169E369194341EA06
:1024E0000003BEF5000F04D1D4E90301184340EA0C
:1024F00001034FF6FF70824204D0D4E9060108437D
:102500001043034347F60040C4F200008445CCF872
:102510000C3003D1D4E90B1211430162012084F87D
:1025200036000020BDE8F08110B59CB0044617A825
:102530001421FDF78AFE02A804305021FDF785FE24
:10254000206847F60041C4F2000188422ED14FF4C2
:102550000070029002A800F00DF908B1FEF7D2FB5E
:1025600041F24C00C4F20200C16841F00041C16078
:10257000C16801F0004101910199016841F0020137
:102580000160006817A900F0020001900198A020E6
:1025900017900220CDE9180000201A900B201B9004
:1025A00040F20040C4F60000FFF7A8FD1CB010BDCB
:1025B0000068C069704782B041F25800C4F202005E
:1025C000816841F001018160816801F001010191A0
:1025D0000199016841F080510160006800F080506D
:1025E0000090009802B000F0BCB800280CD400F0B5
:1025F0001F01012202FA01F11C2202EAD0004EF270
:102600000012CEF200028150704710B54EF60C5CFD
:10261000CEF2000CDCF80030C3F3022E8EF007047B
:10262000042C28BF0424BEF103034FF0FF3E0EFA32
:1026300004F438BF0023A14399400EFA03F39A43F0
:10264000114300F00F0200F160430901043A03F561
:1026500064436244002848BF02F10C03197010BDA6
:102660004EF60C51CEF200010A684FF6FF031A40F5
:1026700060F30A2242F0806040F0FD70086070470D
:1026800047F2000CC4F2000CDCF80020B0F5007F2B
:102690002ED000285ED1DCF8800002F4C06220F465
:1026A0008070B2F5806FCCF8800058D1DCF8000063
:1026B000012262F34A20CCF8000043F22000C2F26B
:1026C00000000068322358434DF68363C4F21B3385
:1026D000A0FB030302EB9340002200BFDCF81410C0
:1026E000013842F1000349052DD5002BF6D12AE02F
:1026F000DCF8800002F4C06140F48070B1F5806FB6
:10270000CCF880002BD1DCF80000012161F34A20D5
:10271000CCF8000043F22000C2F200000068322230
:1027200050434DF68362C4F21B32A0FB020201EB60
:1027300092400022DCF81410013842F100034905F0
:1027400001D5002BF6D1DCF81400400544BF03206E
:10275000704704E0022060F34A22CCF800200020F9
:10276000704747F20800C4F20000016841F480415C
:10277000016070472DE9F04182B00446807841F253
:102780000C060007C4F2020601D400204FE0F06CF2
:102790005FEAC00808D4F06C40F08050F064F06C40
:1027A00000F080500190019847F20007C4F2000742
:1027B000386840F480703860FFF792FD054600BF2E
:1027C0003868C00506D4FFF78BFD401B0228F7D9F7
:1027D000032025E0D6F8840010F4407017D0216D56
:1027E000884211D0D6F88400D6F8841020F44070C6
:1027F00041F48031C6F88410D6F8841021F4803179
:10280000C6F88410C6F88400C00740F0E880D6F807
:102810008400216D20F440700843C6F88400002035
:10282000B8F1000F03D4F16C21F08051F1642168FC
:10283000CA0705D0F26F636822F003021A43F267F9
:102840008A0705D5F26FA36822F00C021A43F267DB
:102850004A0705D5F26FE36822F030021A43F267A7
:102860000A0705D5F26F236922F0C0021A43F26706
:10287000CA0605D5F26F636922F440721A43F26703
:102880008A0605D5F26FA36922F440621A43F26703
:102890004A0605D5F26FE36922F440521A43F26703
:1028A0000A0605D5F26F236A22F440421A43F26702
:1028B000CA0505D5F26F636A22F440321A43F26703
:1028C0008A0307D5D6F89020A36A22F003021A43A0
:1028D000C6F890208A0505D5F26FE36A22F44022FB
:1028E0001A43F2674A050CD5F26F236B22F44012AB
:1028F0001A43B3F5801FF26703D1326842F48012A5
:1029000032600A050CD5F26F636B22F440021A4361
:10291000B3F5800FF26703D1326842F4801232605F
:10292000CA040CD5F26FA36B22F040721A43B3F1C4
:10293000807FF26703D1326842F4801232608A04E9
:102940000CD5F26FE36B22F040621A43B3F1006FD3
:10295000F26703D1326842F4801232604A040CD527
:10296000F26F236C22F040621A43B3F1006FF267FA
:1029700003D1326842F4801232600A040CD5F26F3F
:10298000636C22F040521A43B3F1805FF26703D1C7
:10299000326842F480323260CA030CD5F26FA36C05
:1029A00022F040421A43B3F1804FF26703D13268FC
:1029B00042F48032326049030ED5D6F89010E26CB2
:1029C00021F440111143B2F5001FC6F8901003D155
:1029D000316841F48011316002B0BDE8F081FFF749
:1029E0007FFC054641F28837D6F8840080073FF522
:1029F0000EAFFFF775FC401BB842F5D9E8E60000C2
:102A00002DE9F047002862D042F2000AC4F2020A1F
:102A10000446DAF800000D4600F00F0081420CD9A0
:102A2000DAF8000020F00F002843CAF80000DAF8B6
:102A3000000000F00F00A84249D1206841F20808C8
:102A4000C107C4F2020802D181077CD494E0626815
:102A500058F8081C022A38D0032A3BD1890136D500
:102A6000D8F80410D8F8042042F20047C2F3031249
:102A700001F00301D8F804300132C0F2F407032951
:102A800004BF41F20027C0F27A07B7FBF2F1D8F891
:102A90000420C3F306235943C2F34162022303EB2C
:102AA0004202B1FBF2F14BF20042C0F2C442914249
:102AB00008D9D8F8001011F0F00F15D0800701D513
:102AC000A06888B14FF0000917E0880304D4012002
:102AD000BDE8F0874805FAD500F0F2F84BF2004166
:102AE000C0F2C4418842EDD9D8F80000082161F352
:102AF00007104FF00109C8F80000D8F8000061681D
:102B000020F003000843C8F80000FFF7E9FB064681
:102B100041F28837D8F80000616800F00C00B0EB93
:102B2000810F05D0FFF7DCFB801BB842F2D940E0F3
:102B30002068810707D4B9F1000F1DD0D8F8001024
:102B400021F0F00116E0410705D5D8F8001041F456
:102B5000E061C8F80010010706D5D8F80010072278
:102B600062F30D21C8F80010D8F80010A26821F017
:102B7000F0011143C8F80010DAF8001001F00F015D
:102B80008D421AD2DAF8000020F00F002843CAF86C
:102B90000000FFF7A5FB064641F28837DAF800008F
:102BA00000F00F00A84207D0FFF79AFB801BB84245
:102BB000F4D90320BDE8F0872068410707D5D8F88D
:102BC0000010E26821F4E0611143C8F8001000072A
:102BD00008D5D8F80000216920F4605040EAC1000F
:102BE000C8F8000000F06CF8D8F8001048F27C2219
:102BF000C1F30311C0F60102515C43F2200201F05F
:102C00001F0120FA01F143F2FC00C2F2000000684B
:102C1000C2F200021160BDE8F047FFF782BB0F224D
:102C2000026041F20802C4F20202136803F00303D7
:102C30004360136803F0F0038360136803F4E063F8
:102C4000C36012684FF4E06303EAD202026142F209
:102C50000000C4F20200006800F00F000860704736
:102C600043F22000C2F200000068704743F22000E7
:102C700041F20801C2F20000C4F2020100680968D2
:102C800048F28C22C1F30221C0F60102515C01F02E
:102C90001F01C840704743F2200041F20801C2F210
:102CA0000000C4F202010068096848F28C22C1F3F6
:102CB000C221C0F60102515C01F01F01C8407047FB
:102CC00041F20801C4F20201086842F20042C0F277
:102CD000F40200F00C000428104608BF7047086892
:102CE00000F00C00082841F20020C0F27A0024D045
:102CF0000B6803F00C030C2B1CBF0020704780B541
:102D0000D1F804C04B680CF0030CC3F3031E4B68EE
:102D10000EF1010EBCF1030F08BF02464968B2FB79
:102D2000FEF0C3F30623C1F341610222584302EBD4
:102D30004101B0FBF1F0BDE88040704700285FD052
:102D40002DE9F04182B00446007841F20006C00748
:102D5000C4F2020656D12078800774D42078000788
:102D600000F198802078400700F1B6802078800636
:102D700000F10281E569002D00F01B82B06800F0CF
:102D80000C000C2840F04C81012D00F0E080F06830
:102D9000216A00F003028A4240F0D980626A6FF033
:102DA0000F0300F0F00103EB0212914240F0CF80DC
:102DB000A16A00F4FE42B2EB012F40F0C880E16A44
:102DC00000F07842B2EBC16F40F0C180226B00236B
:102DD000CFF6E07303EA025200F4C001A2F500123C
:102DE000914240F0B480616B4FF07E4202EA016193
:102DF00000F0C06001F17E41884240F0A880D8E137
:102E000001207047B06800F00C01F06808295AD022
:102E1000032281F00C0122EA00000844B0FA80F09D
:102E2000400950D161683068B1F5803F07D0B1F5F5
:102E3000A02F40F0CC8040F480203060306840F417
:102E400080303060CCE0B068F16800F00C000428FD
:102E500067D001F0030180F00C0081F0020108440A
:102E6000B0FA80F040095CD1E1683068002900F0D8
:102E7000C58040F480703060FFF732FA054600BF2D
:102E80003068400500F1EE80FFF72AFA401B022867
:102E9000F6D91EE16169D6F89400002900F085801A
:102EA00040F00100C6F89400FFF71AFA054600BF8B
:102EB000D6F8940080073FF555AFFFF711FA401B95
:102EC0000228F5D905E1306880037FF544AF6068DA
:102ED00000287FF440AF3AE0B06D5FEAC00808D444
:102EE000B06D40F08050B065B06D00F08050019042
:102EF000019847F20007C4F200073868C00528D4DB
:102F0000386840F480703860FFF7EAF9054600BF82
:102F10003868C0051DD4FFF7E3F9401B0228F7D934
:102F2000D7E03068400501D5E06880B1706821695C
:102F300020F0FE4040EA0160706043F2FC00C2F203
:102F400000000068FFF7EDF900283FF407AF01200B
:102F500030E1A168D6F89000012908D0052940F099
:102F60009E8040F00400C6F89000D6F8900040F033
:102F70000100C6F890009DE0A169D6F898000029EC
:102F800078D040F00100C6F89800FFF7A9F905468F
:102F9000D6F8980080073FF5EDAEFFF7A1F9401B8A
:102FA00002284FF00300F3D904E120F00100C6F835
:102FB0009400FFF795F90546D6F8940080077FF551
:102FC000D1AEFFF78DF9401B0228F5D981E020F43E
:102FD000803030603068002920F4802030607AD062
:102FE000FFF77EF9054600BF306880033FF5B3AEBA
:102FF000FFF776F9401B6428F6D96AE020F4807068
:103000003060FFF76DF90546306840057FF5A6AEE4
:10301000FFF766F9401B02284FF00300F4D9C9E01E
:10302000306820F080703060FFF75AF9022D0546B5
:103030000CD100BF3068800177D5FFF751F9401BF4
:1030400002284FF00300F5D9B4E000BF30688001DA
:1030500040F1A880FFF744F9401B02284FF003001D
:10306000F4D9A7E07068216920F0FE4040EA0160D1
:10307000706073E620F00100C6F89800FFF730F9A1
:10308000054600BFD6F8980080077FF573AEFFF7BE
:1030900027F9401B02284FF00300F3D98AE020F003
:1030A0000100C6F89000D6F8900020F00400C6F8A1
:1030B0009000F9B1FFF714F9054641F2883700BFD7
:1030C000D6F89000800727D4FFF70AF9401BB842D2
:1030D000F6D903206EE0FFF703F905463068800358
:1030E0007FF539AEFFF7FCF8401B64284FF0030072
:1030F000F4D95FE0FFF7F4F8054641F2883700BFE6
:10310000D6F89000800707D5FFF7EAF8401BB842D1
:103110004FF00300F4D94DE0B8F1000F3FF526AEB3
:10312000B06D20F08050B06520E6F06848F20C01E8
:10313000C0F29F1104F1200700EA010C8ECF6FF05E
:103140000F00D4E90C5400EB02100022CFF6E0721D
:1031500041EA0C0102EA05520843A2F500124FF0C1
:103160007E4540EA032005EA0465104305F17E45EB
:1031700040EAC7602843F060306840F080703060FB
:10318000F06840F08070F060FFF7AAF804463068FD
:1031900080010ED4FFF7A4F8001B02284FF00300B3
:1031A000F5D907E0F0684FF6FC71CFF6EE61084004
:1031B000F060002002B0BDE8F081704738B1B0B5D2
:1031C0000446406A28B100202061142006E0012056
:1031D00070476068B0F5827F02D01C20002121502A
:1031E0000025A56294F85D0020B9204684F85C5063
:1031F00000F052F8022084F85D002068D4F80CE05A
:103200000268BEF5E06F22F0400202604EF40062F8
:1032100098BF0125B2F5706F1CBF0023A3624FEA6F
:10322000053CD4E90135D4E9042103F4827305F4A3
:1032300004452B4402F002021A44A36901F0010183
:10324000E569114403F40072114405F03802256A5F
:10325000114405F08002A56A114405F4005211439F
:1032600001600421626A0EF4706501EA1341636B28
:1032700045EA0C0502F01002294303F0080311434C
:1032800019434160C16921F40061C161002001213D
:10329000206684F85D10B0BD2DE9F04786B0044685
:1032A00001A81421FCF7D1FF206843F60001C4F205
:1032B000000188426AD043F20001C4F20101884251
:1032C00040F0A18041F24C00C4F20200416901AD1E
:1032D00041F48051416141694FF0020901F480518C
:1032E000009100990168002641F001010160016828
:1032F0004FF0050A01F0010100910099016841F0C9
:10330000020101600068294600F002000090009868
:10331000402001904FF09040CDF80890CDE9036631
:10332000CDF814A0FEF7EAFE4FF0800803274FF017
:1033300090402946CDE901890396CDE9047AFEF74C
:10334000DDFE0820CDE9010903A880E8C00440F2B1
:103350000040C4F600002946FEF7D0FE45F28C4539
:103360001C20C2F20005C4F202000B21102285E8E5
:1033700047012846C5E90566C5E90766FEF7D4FD9D
:1033800008B1FDF7BFFC6565AC623CE041F24C0062
:10339000C4F20200C16840F2004441F48041C160BF
:1033A000C168C4F6000401F48041009100990168ED
:1033B00001AD41F0200101600168022601F0200109
:1033C000009100990168002741F002010160006846
:1033D0004FF0050800F002000090009804F58050BE
:1033E0002946CDE90166CDE90377CDF81480FEF7D3
:1033F00085FE4FF4404001A9C1C120462946CDE9D0
:103400000478FEF77BFE06B0BDE8F0872DE9F043B7
:1034100081B01E4615460F460446FEF761FF94F83C
:103420005D108146012940F08980002F4FF0010096
:1034300000F00581002D00F00281002E00F0FF80D9
:1034400094F85C00012800F08680012084F85C007C
:1034500094F85D0004281CBF052084F85D0000205E
:1034600020662564A4F84660A4F84460A763E68754
:10347000C4E913002068A687E1684268B1F5E06FEF
:1034800022F48052134698BF03F58053012E88BF63
:10349000134643600268520603D4026842F04002B9
:1034A00002606268731EB2FA82F2B3FA83F3DDF847
:1034B000208052095B09B1F5E06F43EA02014CD963
:1034C00031B137F8021BC160A763E08F0138E08794
:1034D000012608F1010500BFE08F20B9B4F84600CD
:1034E000002800F0AF802068816889070CD5E18F43
:1034F00051B1012E08D1A16B002631F8022BC26018
:10350000A163E18F0139E1878168C9070DD0B4F863
:10351000461051B1C068216C012621F8020B2164CC
:10352000B4F846000138A4F84600FEF7D9FE002D95
:10353000D2D0A0EB09004045CED379E06068B0F569
:10354000827F08D104294FF0020078D1A1680029B8
:103550003FF46BAF73E0022071E089B1E18F022983
:103560004FF6FE7103D337F8022BC26004E03A78BD
:1035700001310273A06B471CA763E08F0844E0870A
:10358000012608F1010500BFE08F18B9B4F8460024
:10359000002857D020688168890718D5E18FB1B11C
:1035A000012E14D1E28FA16B022A06D331F8022B2F
:1035B000C260A163E18F023907E009780173A16B52
:1035C00020680131A163E18F01390026E18781681C
:1035D000C90725D0B4F8461011B3B4F84610022933
:1035E00012D3C168226C22F8021B2264B4F8461080
:1035F0000239A4F84610B4F8461001290FD84168E2
:1036000041F4805141600AE0007B216C0870206C1D
:1036100001302064B4F846000138A4F846000126C1
:10362000FEF75EFE002DAFD0A0EB09004045ABD306
:10363000012084F85D00002084F85C00032001B0C4
:10364000BDE8F083204641464A4603F0D7FA30B140
:1036500020202066002084F85C000120EFE7012094
:1036600084F85D00002084F85C00206E002818BFFC
:103670000120E4E770B5044690F85D00012809D107
:1036800000294FF0010077D0002A75D094F85C0033
:10369000012801D1022070BD012084F85C000320C4
:1036A000002384F85D002366A163A287E287236478
:1036B000C4E91333A4F84430A4F84630A068226863
:1036C000B0F5004F07D1106820F04000106010687E
:1036D00040F480401060606D46F6833E46F68935C2
:1036E00046F66536C0F6000EC0F60005C0F60006C8
:1036F000C0E90B5EC0E90D63D4F80CC05368BCF59B
:10370000E06F23F48043536015D88369B3F5806F6D
:1037100011D1E68F5368F60705D123F48043536037
:10372000E38F5B0806E043F480435360E38F012698
:1037300006EB5303E387E38F0C32FEF787FC40B1BF
:10374000206E40F010002066002084F85C0001200C
:1037500070BD21680868400603D4086840F0400046
:103760000860002084F85C004A6842F020024A6049
:103770004A6842F002024A6070BD70477047704765
:103780007047704770477047704790F83C20012A97
:103790004FF0020261D070B580F83D20026842F619
:1037A000004C54689368C4F2010C45F2000E624567
:1037B000C4F2010E18BF724528D14D6824F470047C
:1037C0002C434FF68F75CFF6FF550E682C4042F60E
:1037D000FF35C4F201053443AA4254600BDC40F2C9
:1037E000FF76C4F20006B24217DCB2F1804F27D058
:1037F00040F2004619E043F6FF74C4F20104A2420D
:1038000016DC62451CD043F2004615E043F2004549
:10381000C4F20105AA42D0D0D3E740F60006C4F2B4
:103820000006B2420CD040F60046C4F2000605E0A5
:10383000724505D044F20006C4F20106B24204D13A
:10384000896823F08003194391600121002280F8E8
:103850003D1080F83C20BDE870401046704770472E
:1038600060B310B5044690F83D0028B9002084F8F4
:103870003C00204600F024F8022084F83D00206837
:10388000211D03F038FB012084F8480084F83E0035
:1038900084F83F0084F8400084F8410084F8420036
:1038A00084F8430084F8440084F8450084F8460016
:1038B00084F8470084F83D00002010BD01207047C7
:1038C00010B582B0006844F20041C4F201018842A0
:1038D00014D041F20001C4F20001884227D141F224
:1038E0005800C4F202000168362441F01001016062
:1038F000006800F01000019001980DE041F25800BE
:10390000C4F202008168192441F4003181608068AA
:1039100000F4003000900098204600210022FEF7BD
:1039200074FE204602B0BDE81040FEF75EBE02B055
:1039300010BD90F83D10012919D1022180F83D10E9
:10394000016842F6FF32C868C4F20102914240F0B9
:103950000100C8600DDC40F2FF70C4F2000081423B
:1039600016DCB1F1804F2AD040F2004018E001206F
:10397000704743F6FF70C4F20100814213DC42F647
:103980000040C4F20100814219D043F2004012E02D
:1039900040F60000C4F20000814210D040F6004022
:1039A000C4F2000009E045F20000C4F201008142C7
:1039B00005D044F20000C4F2010081420CD18868B5
:1039C0000722C0F201020240062A4FF00000CFD0C9
:1039D000B2F5803F08BF7047086840F001000860FA
:1039E000002070477047F0B581B004460068C56894
:1039F0000669B10716D515F0020113D06FF0020168
:103A00000161012121778069800703D02046FFF7FB
:103A1000E9FF05E0204600F0F1F8204600F092F9B9
:103A200000202077700718D515F0040015D0206805
:103A30006FF00401016102212177806910F4407F59
:103A400003D02046FFF7CEFF05E0204600F0D6F871
:103A5000204600F077F900202077300717D515F0C1
:103A6000080014D020686FF008010161042121775B
:103A7000C069800703D02046FFF7B4FF05E0204669
:103A800000F0BCF8204600F05DF900202077F00639
:103A900018D515F0100015D020686FF010010161E5
:103AA00008212177C06910F4407F03D02046FFF73A
:103AB00099FF05E0204600F0A1F8204600F042F909
:103AC00000202077F00718BF15F0010006D020680D
:103AD0006FF001010161204600F0EEF916F4025F7B
:103AE00005F0800718BF002F06D020686FF4025140
:103AF00001612046FFF744FEF00507D537B1206885
:103B00006FF4807101612046FFF739FE700609D518
:103B100015F0400006D020686FF04001016120469A
:103B200000F04AFAB00609D515F0200006D020684A
:103B30006FF0200101612046FFF723FEF00209D556
:103B400015F4801006D020686FF4801101612046C2
:103B5000FFF719FEB00209D515F4001006D0206851
:103B60006FF4001101612046FFF70CFE700209D5C9
:103B700015F4800006D020686FF4800101612046B2
:103B8000FFF702FE30020CD515F4000009D02168C1
:103B90006FF4000220460A6101B0BDE8F040FFF773
:103BA0005EBE01B0F0BD10B586B0044601A8142178
:103BB000FCF74BFB2068B0F1804F1DD141F24C0067
:103BC000C4F20200016841F002010160006801A92D
:103BD00000F00200009000984FF400600190022075
:103BE00002900020CDE903000120059040F2004042
:103BF000C4F60000FEF782FA06B010BD7047000060
:103C0000B0B5044690F83C00012804BF0220B0BDC6
:103C10000D464FEAB2010120052984F83C0048D83E
:103C2000DFE801F0032B13230B332068294603F050
:103C300001FA206850F8181F0EE02068294603F0AA
:103C400029FB206850F8501F06E02068294603F041
:103C500083FA206850F81C1F41F0080101600168D8
:103C600021F00401016029691FE02068294603F062
:103C7000C2FA206850F81C1F0EE02068294603F0A5
:103C80001CFA206850F8181F06E02068294603F047
:103C900031FB206850F8501F41F400610160016859
:103CA00021F4806101602969090202681143016001
:103CB0000020002184F83C10B0BD60B310B504466C
:103CC00090F83D0028B9002084F83C00204600F020
:103CD00024F8022084F83D002068211D03F00BF930
:103CE000012084F8480084F83E0084F83F0084F8FE
:103CF000400084F8410084F8420084F8430084F8CE
:103D0000440084F8450084F8460084F8470084F8AD
:103D10003D00002010BD012070470068B0F1804FC9
:103D200018BF704781B041F25800C4F20200016828
:103D300041F001010160006800F00100009000986E
:103D400001B070477047000080B5C1B10B1F4FEA4A
:103D5000B30E43224FF03F0CBEF1040F38BF0CEB03
:103D6000B302825C012A12D1BEF1030F1DD8DFE835
:103D70000EF002181014022280F83F2018E090F88C
:103D80003E20012A03D1022280F83E2010E00120CB
:103D900080BD022280F841200AE0022280F8422001
:103DA00006E0022280F8402002E0022280F8432050
:103DB000026801F01F010120136A00FA01F18B4330
:103DC0001362136A0B43A2F18041A1F596314FEAC9
:103DD000B1210729136252D8884010F0E50F4ED068
:103DE000506C42F6FF31C4F2010140F400408A42B7
:103DF00050640BDC40F2FF70C4F20000824214DC1D
:103E0000B2F1804F28D040F2004016E043F6FF7038
:103E1000C4F20100824213DC42F60040C4F2010009
:103E2000824219D043F2004012E040F60000C4F292
:103E30000000824210D040F60040C4F2000009E0C9
:103E400045F20000C4F20100824205D044F20000B5
:103E5000C4F2010082420CD190680721C0F2010136
:103E6000014006294FF0000008D0B1F5803F08BF9F
:103E700080BD106840F001001060002080BD42F657
:103E8000FF30C4F201008242B4DD43F6FF70C4F299
:103E900001008242C0DD44F20000C4F2010082420F
:103EA000DAD045F20000C4F201008242E1D1506C48
:103EB00040F400405064CFE770B50446006841F21A
:103EC0000045C4F20005A8420DD1FEF70FFA45F2F5
:103ED000E026C2F200063078012803D103F015FE77
:103EE00000203070206805F59831884218BF70BDF9
:103EF00045F2C825C2F2000528684EF28E3148F618
:103F00003962C0F63861C3F6E30200FB02114CF2DD
:103F10001C7245F28674C1F67142C2F200049142ED
:103F20004FF00001617002D803F09EFF286848F648
:103F3000F66143F68502C0F2A911C3F62B7200FBAD
:103F4000021141F6EC52C0F25332914202D803F012
:103F5000DBFF286846F686714BF26D12C0F2441101
:103F6000C7F6324200FB02114DF60C72C0F28822F5
:103F7000914202D813F038F8286849F6D42143F268
:103F80008B62C0F27001CCF6562200FB021143F2A4
:103F9000A852C0F2E102914209D845F2CC20C2F207
:103FA000000001680131016003F028FE00200130AB
:103FB00028600120607070BD704790F8581001298A
:103FC0004FF0020111D080F859100268116813688F
:103FD00023F00103136021F00053002141641360BA
:103FE000012280F8592080F858100846704770B5B3
:103FF000044690F8580001284FF0020008BF70BD39
:10400000012584F8585084F8590020680668026831
:1040100022F001020260826822F060621143816036
:10402000204603F028FA20680660002084F85950E2
:1040300084F8580070BD70B5044690F85800012807
:104040004FF0020008BF70BD012584F8585084F875
:10405000590020680668026822F001020260826846
:1040600022F0604211438160204603F004FA206888
:104070000660002084F8595084F8580070BD000094
:10408000002859D070B5064690F8590028B900208C
:1040900086F85800304600F005F9022086F85900ED
:1040A0003168D6E902EC33690D6846F6F31025F065
:1040B00001050D6075690A68CCF6FF7010404EEA84
:1040C00003022A43104340F400400860306AD6E9F6
:1040D00006234D68104343F609741843A54340EA8C
:1040E0000C00284340F400604860CA6A706A44F2D9
:1040F000004322F00F02C4F2000302439942CA6255
:1041000027D044F60002C4F20002914216D043F6D2
:104110000002C4F20102914240F0AA8041F28801FB
:10412000C4F20201096801F00301DFE801F0022F87
:104130002029FEF7B0FD2BE00120704741F28801F5
:10414000C4F202010968C1F30111DFE801F00D1F9B
:10415000101941F28801C4F202010968C1F381011A
:10416000DFE801F00214050EFEF780FD10E00A28DA
:1041700020D248F25421C0F6010151F820001DE080
:104180000A2828D242A131F8100028E0FEF798FD55
:10419000716A0A2906D248F25422C0F6010252F886
:1041A000211003E04FF4807108BF80217268B0FBDA
:1041B000F1F00AE04FF4807008BF802042F2004125
:1041C000C0F2F4017268B1FBF0F0510801EB40005D
:1041D000B0FBF2F00DE04FF4807008BF80204FF488
:1041E0000041B1FBF0F07168400000EB5100B0FB02
:1041F000F1F0A0F110024FF6F0718A4238D201407E
:10420000C0F3420032680844D0604FF00110C6F895
:104210003A000020C6E91200516821F48041516043
:10422000916821F02A019160116841F0010111604B
:10423000F065FEF755F8316805460A68120709D59A
:1042400030464FF400112A464FF47A7303F03AF9DE
:1042500060B931680868400713D530464FF48001D3
:104260002A464FF47A7303F02DF950B1032070BD44
:104270004FF00110C6F83A000020C6E912000120F4
:1042800070BD012086F85900002086F8580070BDE6
:10429000010002000400060008000A000C001000E3
:1042A0002000400010B59CB0044617A81421FBF76D
:1042B000CCFF02A808304C21FBF7C7FF206843F66B
:1042C0000001C4F2010188422ED101200290002495
:1042D00002A80394FEF74EFA08B1FCF713FD41F271
:1042E0004C00C4F20200416941F4804141614169DE
:1042F00001F4804101910199016841F001010160DF
:10430000006817A900F00100019001984FF4E060E7
:1043100017900220CDE9180403201A9007201B9063
:104320004FF09040FDF7EAFE1CB010BD2DE9F041C2
:10433000044690F8590001280BD10D4600294FF092
:10434000010057D01746002A54D094F8580001288D
:1043500002D10220BDE8F081012084F8580000203D
:10436000E0651220984684F85900FDF7B9FFA7854B
:10437000E785A1680746B1F5805F01D12069D8B310
:104380002E460025E08DC0B1204680213A464346A6
:1043900003F098F8C8B92EB116F8010B21688862AD
:1043A00007E000BF35F8020B21686FF35F208862D9
:1043B0000026E08D0138E085E4E7204640213A46BA
:1043C0004346402503F07EF810B10320BDE8F0819C
:1043D0002068082105620162816941F0080181615C
:1043E000816941F010018161012084F859000020A9
:1043F00084F85800BDE8F0810026C3E7FEE700001E
:1044000070B584B0ADF802004FF090404FF4004119
:1044100000220026FDF75EFF4FF090404FF48051E0
:104420000022FDF757FF45F224542A20C2F200046F
:104430008DF805000DF10501204601220125FFF749
:1044400019F94FF090404FF400410122FDF742FF6F
:104450004FF090404FF400410022FDF73BFF4FF03A
:1044600090404FF480510122FDF734FF0DF1060119
:10447000204601228DF80660FFF7FCF84FF09040CF
:104480004FF400410122FDF725FF4FF090404FF41B
:1044900000410022FDF71EFF4FF090404FF4805185
:1044A0000122FDF717FF0DF10701204601228DF8CB
:1044B0000760FFF7DFF84FF090404FF40041012212
:1044C000FDF708FF4FF090404FF400410022FDF748
:1044D00001FF4FF090404FF480510122FDF7FAFEAA
:1044E00002A9204601228DF80860FFF7C3F84FF0BB
:1044F00090404FF400410122FDF7ECFE4FF0904058
:104500004FF400410022FDF7E5FE4FF090404FF4DC
:1045100080510122FDF7DEFEEF208DF809000DF13C
:10452000090120460122FFF7A5F84FF090404FF413
:1045300000410122FDF7CEFE4FF090404FF40041C4
:104540000022FDF7C7FE4FF090404FF4805100224B
:10455000FDF7C0FE2B208DF80A000DF10A01204660
:104560000122FFF787F84FF090404FF400410122FD
:10457000FDF7B0FE4FF090404FF400410022FDF7F0
:10458000A9FE4FF090404FF480510122FDF7A2FEAA
:104590000DF10B01204601228DF80B60FFF76AF840
:1045A0004FF090404FF400410122FDF793FE4FF091
:1045B00090404FF400410022FDF78CFE4FF09040F8
:1045C0004FF480510122FDF785FE03A92046012208
:1045D0008DF80C60FFF74EF84FF090404FF400411B
:1045E0000122FDF777FE4FF090404FF4004100228A
:1045F000FDF770FE4FF090404FF480510122FDF71F
:1046000069FE0DF10D01204601228DF80D50FFF7D6
:1046100031F84FF090404FF400410122FDF75AFE6F
:104620004FF090404FF400410022FDF753FE4FF051
:1046300090404FF480510122FDF74CFE3F208DF851
:104640000E000DF10E0120460122FFF713F84FF086
:1046500090404FF400410122FDF73CFE4FF09040A6
:104660004FF400410022FDF735FE4FF090404FF42B
:1046700080510022FDF72EFE2C208DF80F000DF149
:104680000F0120460122FEF7F5FF4FF090404FF456
:1046900000410122FDF71EFE4FF090404FF4004113
:1046A0000022FDF717FE4FF090404FF48051012299
:1046B000FDF710FE4FF496360DF102054FF09040D5
:1046C0004FF400410022FDF705FE4FF090404FF4FB
:1046D00080510122FDF7FEFD204629460222FEF709
:1046E000C9FF4FF090404FF400410122FDF7F2FD69
:1046F000013EE3D14FF090404FF400410122FDF71D
:10470000E9FD04B070BD2DE9F04F81B04FF090404D
:104710004FF4006101224FF00108FDF7DBFD0A2094
:104720004FF00A0AFDF7D6FC4FF090404FF40061BD
:1047300000220025FDF7CEFD0A20FDF7CBFC4FF04F
:1047400090404FF400610122FDF7C4FD0A20FDF7FF
:10475000C1FC4FF090404FF400410022FDF7BAFD3C
:104760004FF090404FF480510022FDF7B3FD45F229
:104770002454CF20C2F200048DF803000DF1030190
:1047800020460122FEF776FF4FF090404FF40041A3
:104790000122FDF79FFD4FF090404FF400410022B1
:1047A000FDF798FD4FF090404FF480510122FDF746
:1047B00091FD0DF10301204601228DF80350FEF713
:1047C00059FF4FF090404FF400410122FDF782FD68
:1047D0004FF090404FF400410022FDF77BFD4FF079
:1047E00090404FF480510122FDF774FDC9208DF8EF
:1047F00003000DF1030120460122FEF73BFF4FF0BD
:1048000090404FF400410122FDF764FD4FF09040CD
:104810004FF400410022FDF75DFD4FF090404FF452
:1048200080510122FDF756FD30260DF1030120468F
:1048300001228DF80360FEF71DFF4FF090404FF40A
:1048400000410122FDF746FD4FF090404FF400413A
:104850000022FDF73FFD4FF090404FF480510022C1
:10486000FDF738FDED208DF803000DF10301204622
:104870000122FEF7FFFE4FF090404FF4004101226D
:10488000FDF728FD4FF090404FF400410022FDF766
:1048900021FD4FF090404FF480510122FDF71AFDA9
:1048A00064208DF803000DF1030120460122FEF77C
:1048B000E1FE4FF090404FF400410122FDF70AFD68
:1048C0004FF090404FF400410022FDF703FD4FF000
:1048D00090404FF480510122FDF7FCFC03208DF83D
:1048E00003000DF1030120460122FEF7C3FE4FF045
:1048F00090404FF400410122FDF7ECFC4FF0904056
:104900004FF400410022FDF7E5FC4FF090404FF4DA
:1049100080510122FDF7DEFC12208DF803000DF11D
:10492000030120460122FEF7A5FE4FF090404FF410
:1049300000410122FDF7CEFC4FF090404FF40041C2
:104940000022FDF7C7FC4FF090404FF48051012248
:10495000FDF7C0FC81208DF803000DF10301204616
:104960000122FEF787FE4FF090404FF400410122F4
:10497000FDF7B0FC4FF090404FF400410022FDF7EE
:10498000A9FC4FF090404FF480510022FDF7A2FCAB
:10499000E8208DF803000DF1030120460122FEF707
:1049A00069FE4FF090404FF400410122FDF792FC68
:1049B0004FF090404FF400410022FDF78BFC4FF088
:1049C00090404FF480510122FDF784FC85208DF842
:1049D00003000DF1030120460122FEF74BFE4FF0CC
:1049E00090404FF400410122FDF774FC4FF09040DD
:1049F0004FF400410022FDF76DFC4FF090404FF462
:104A000080510122FDF766FC10208DF803000DF1A6
:104A1000030120460122FEF72DFE4FF090404FF497
:104A200000410122FDF756FC4FF090404FF4004149
:104A30000022FDF74FFC4FF090404FF480510122CF
:104A4000FDF748FC7A208DF803000DF103012046A4
:104A50000122FEF70FFE4FF090404FF4004101227B
:104A6000FDF738FC4FF090404FF400410022FDF775
:104A700031FC4FF090404FF480510022FDF72AFCAA
:104A8000CB208DF803000DF1030120460122FEF733
:104A9000F1FD4FF090404FF400410122FDF71AFC68
:104AA0004FF090404FF400410022FDF713FC4FF00F
:104AB00090404FF480510122FDF70CFC39208DF815
:104AC00003000DF1030120460122FEF7D3FD4FF054
:104AD00090404FF400410122FDF7FCFB4FF0904065
:104AE0004FF400410022FDF7F5FB4FF090404FF4EA
:104AF00080510122FDF7EEFB2C208DF803000DF113
:104B0000030120460122FEF7B5FD4FF090404FF41F
:104B100000410122FDF7DEFB4FF090404FF40041D1
:104B20000022FDF7D7FB4FF090404FF48051012257
:104B3000FDF7D0FB0DF10301204601228DF8035053
:104B4000FEF798FD4FF090404FF400410122FDF731
:104B5000C1FB4FF090404FF400410022FDF7BAFB3B
:104B60004FF090404FF480510122FDF7B3FB342009
:104B70008DF803000DF1030120460122FEF77AFDB6
:104B80004FF090404FF400410122FDF7A3FB4FF09E
:104B900090404FF400410022FDF79CFB4FF0904005
:104BA0004FF480510122FDF795FB02208DF80300A0
:104BB0000DF1030120460122FEF75CFD4FF090400D
:104BC0004FF400410122FDF785FB4FF090404FF478
:104BD00000410022FDF77EFB4FF090404FF48051E2
:104BE0000022FDF777FBF7208DF803000DF103019C
:104BF00020460122FEF73EFD4FF090404FF4004169
:104C00000122FDF767FB4FF090404FF40041002276
:104C1000FDF760FB4FF090404FF480510122FDF70B
:104C200059FB20208DF803000DF1030120460122DD
:104C3000FEF720FD4FF090404FF400410122FDF7B8
:104C400049FB4FF090404FF400410022FDF742FB3A
:104C50004FF090404FF480510022FDF73BFBEA20DB
:104C60008DF803000DF1030120460122FEF702FD3D
:104C70004FF090404FF400410122FDF72BFB4FF025
:104C800090404FF400410022FDF724FB4FF090408C
:104C90004FF480510122FDF71DFB0DF10301204669
:104CA00001228DF80350FEF7E5FC4FF090404FF4E1
:104CB00000410122FDF70EFB4FF090404FF4004100
:104CC0000022FDF707FB4FF090404FF48051012286
:104CD000FDF700FB0DF10301204601228DF8035082
:104CE000FEF7C8FC4FF090404FF400410122FDF761
:104CF000F1FA4FF090404FF400410022FDF7EAFA3C
:104D00004FF090404FF480510022FDF7E3FAC020AD
:104D10008DF803000DF1030120460122FEF7AAFCE5
:104D20004FF090404FF400410122FDF7D3FA4FF0CD
:104D300090404FF400410022FDF7CCFA4FF0904034
:104D40004FF480510122FDF7C5FA1B208DF80300B6
:104D50000DF1030120460122FEF78CFC4FF090403C
:104D60004FF400410122FDF7B5FA4FF090404FF4A7
:104D700000410022FDF7AEFA4FF090404FF4805111
:104D80000022FDF7A7FAC1208DF803000DF1030101
:104D900020460122FEF76EFC4FF090404FF4004198
:104DA0000122FDF797FA4FF090404FF400410022A6
:104DB000FDF790FA4FF090404FF480510122FDF73B
:104DC00089FA0DF10301204601228DF80350FEF708
:104DD00051FC4FF090404FF400410122FDF77AFA68
:104DE0004FF090404FF400410022FDF773FA4FF06E
:104DF00090404FF480510022FDF76CFAC5208DF8E9
:104E000003000DF1030120460122FEF733FC4FF0B1
:104E100090404FF400410122FDF75CFA4FF09040C2
:104E20004FF400410022FDF755FA4FF090404FF447
:104E300080510122FDF74EFA0DF1030120460122B7
:104E40008DF80360FEF716FC4FF090404FF40041E0
:104E50000122FDF73FFA4FF090404FF4004100224D
:104E6000FDF738FA4FF090404FF480510122FDF7E2
:104E700031FA0DF10301204601228DF80360FEF79F
:104E8000F9FB4FF090404FF400410122FDF722FA68
:104E90004FF090404FF400410022FDF71BFA4FF015
:104EA00090404FF480510022FDF714FAC7208DF88E
:104EB00003000DF1030120460122FEF7DBFB4FF05A
:104EC00090404FF400410122FDF704FA4FF090406A
:104ED0004FF400410022FDF7FDF94FF090404FF4F0
:104EE00080510122FDF7F6F9B7208DF803000DF18E
:104EF000030120460122FEF7BDFB4FF090404FF426
:104F000000410122FDF7E6F94FF090404FF40041D7
:104F10000022FDF7DFF94FF090404FF4805100225E
:104F2000FDF7D8F936208DF803000DF10301204676
:104F30000122FEF79FFB4FF090404FF40041012209
:104F4000FDF7C8F94FF090404FF400410022FDF703
:104F5000C1F94FF090404FF480510122FDF7BAF9AA
:104F600008270DF10301204601228DF80370FEF79A
:104F700081FB4FF090404FF400410122FDF7AAF968
:104F80004FF090404FF400410022FDF7A3F94FF09D
:104F900090404FF480510022FDF79CF93A208DF8A3
:104FA00003000DF1030120460122FEF763FB4FF0E1
:104FB00090404FF400410122FDF78CF94FF09040F2
:104FC0004FF400410022FDF785F94FF090404FF477
:104FD00080510122FDF77EF955208DF803000DF177
:104FE000030120460122FEF745FB4FF090404FF4AD
:104FF00000410122FDF76EF94FF090404FF400415F
:105000000022FDF767F94FF090404FF480510022E5
:10501000FDF760F9B1208DF803000DF10301204682
:105020000122FEF727FB4FF090404FF40041012290
:10503000FDF750F94FF090404FF400410022FDF78A
:1050400049F94FF090404FF480510122FDF742F9A9
:105050000DF10301204601228DF80350FEF70AFBF3
:105060004FF090404FF400410122FDF733F94FF02B
:1050700090404FF400410022FDF72CF94FF0904092
:105080004FF480510122FDF725F91A208DF8030015
:105090000DF1030120460122FEF7ECFA4FF090409B
:1050A0004FF400410122FDF715F94FF090404FF405
:1050B00000410022FDF70EF94FF090404FF480516F
:1050C0000022FDF707F9B6208DF803000DF103016A
:1050D00020460122FEF7CEFA4FF090404FF40041F7
:1050E0000122FDF7F7F84FF090404FF40041002205
:1050F000FDF7F0F84FF090404FF480510122FDF79A
:10510000E9F80DF10301204601228DF803A0FEF716
:10511000B1FA4FF090404FF400410122FDF7DAF868
:105120004FF090404FF400410022FDF7D3F84FF0CC
:1051300090404FF480510122FDF7CCF8A2208DF869
:1051400003000DF1030120460122FEF793FA4FF010
:1051500090404FF400410122FDF7BCF84FF0904021
:105160004FF400410022FDF7B5F84FF090404FF4A6
:1051700080510022FDF7AEF8F2208DF803000DF10A
:10518000030120460122FEF775FA4FF090404FF4DC
:1051900000410122FDF79EF84FF090404FF400418E
:1051A0000022FDF797F84FF090404FF48051012214
:1051B000FDF790F80DF10301204601228DF8035010
:1051C000FEF758FA4FF090404FF400410122FDF7EE
:1051D00081F84FF090404FF400410022FDF77AF83B
:1051E0004FF090404FF480510022FDF773F82620D5
:1051F0008DF803000DF1030120460122FEF73AFA73
:105200004FF090404FF400410122FDF763F84FF05A
:1052100090404FF400410022FDF75CF84FF09040C1
:105220004FF480510122FDF755F80DF1030120469E
:1052300001228DF803804FF00109FEF71BFA4FF0B1
:1052400090404FF400410122FDF744F84FF09040A8
:105250004FF400410022FDF73DF84FF090404FF42D
:1052600080510022FDF736F8E0208DF803000DF1A3
:10527000030120460122FEF7FDF94FF090404FF464
:1052800000410122FDF726F84FF090404FF4004115
:105290000022FDF71FF84FF090404FF4805101229B
:1052A000FDF718F84FF00F080DF103012046012219
:1052B0008DF80380FEF7DEF94FF090404FF4004187
:1052C0000122FDF707F84FF090404FF40041002213
:1052D000FDF700F84FF090404FF480510122FCF7A9
:1052E000F9FF4FF02A0B0DF10301204601228DF842
:1052F00003B0FEF7BFF94FF090404FF40041012298
:10530000FCF7E8FF4FF090404FF400410022FCF71B
:10531000E1FF4FF090404FF480510122FCF7DAFF9B
:1053200028208DF803000DF1030120460122FEF72D
:10533000A1F94FF090404FF400410122FCF7CAFF61
:105340004FF090404FF400410022FCF7C3FF4FF0B4
:1053500090404FF480510122FCF7BCFF0DF1030196
:10536000204601228DF80370FEF784F94FF090403B
:105370004FF400410122FCF7ADFF4FF090404FF495
:1053800000410022FCF7A6FF4FF090404FF48051FF
:105390000122FCF79FFF0E208DF803000DF10301A1
:1053A00020460122FEF766F94FF090404FF400418D
:1053B0000122FCF78FFF4FF090404FF40041002294
:1053C000FCF788FF4FF090404FF480510122FCF72A
:1053D00081FF0DF10301204601228DF80370FEF7D5
:1053E00049F94FF090404FF400410122FCF772FF61
:1053F0004FF090404FF400410022FCF76BFF4FF05C
:1054000090404FF480510122FCF764FF54208DF846
:1054100003000DF1030120460122FEF72BF94FF0A6
:1054200090404FF400410122FCF754FF4FF09040B0
:105430004FF400410022FCF74DFF4FF090404FF435
:1054400080510122FCF746FFA9208DF803000DF1E1
:10545000030120460122FEF70DF94FF090404FF472
:1054600000410122FCF736FF4FF090404FF400411D
:105470000022FCF72FFF4FF090404FF480510122A3
:10548000FCF728FF43208DF803000DF103012046AF
:105490000122FEF7EFF84FF090404FF40041012257
:1054A000FCF718FF4FF090404FF400410022FCF74A
:1054B00011FF4FF090404FF480510122FCF70AFF9A
:1054C0000DF10301204601228DF803A0FEF7D2F86A
:1054D0004FF090404FF400410122FCF7FBFE4FF0EB
:1054E00090404FF400410022FCF7F4FE4FF0904052
:1054F0004FF480510122FCF7EDFE0DF1030120462F
:1055000001228DF80380FEF7B5F84FF090404FF47C
:1055100000410122FCF7DEFE4FF090404FF40041C5
:105520000022FCF7D7FE4FF090404FF4805101224B
:10553000FCF7D0FE0DF10301204601228DF8035047
:10554000FEF798F84FF090404FF400410122FCF72D
:10555000C1FE4FF090404FF400410022FCF7BAFE2C
:105560004FF090404FF480510122FCF7B3FE0DF153
:105570000301204601228DF80350FEF77BF84FF01F
:1055800090404FF400410122FCF7A4FE4FF0904000
:105590004FF400410022FCF79DFE4FF090404FF485
:1055A00080510122FCF796FE0DF1030120460122F5
:1055B0008DF80350FEF75EF84FF090404FF4004135
:1055C0000122FCF787FE4FF090404FF4004100228B
:1055D000FCF780FE4FF090404FF480510122FCF721
:1055E00079FE0DF10301204601228DF80350FEF7EC
:1055F00041F84FF090404FF400410122FCF76AFE61
:105600004FF090404FF400410022FCF763FE4FF052
:1056100090404FF480510022FCF75CFEE1208DF8B1
:1056200003000DF1030120460122FEF723F84FF09D
:1056300090404FF400410122FCF74CFE4FF09040A7
:105640004FF400410022FCF745FE4FF090404FF42C
:1056500080510122FCF73EFE0DF10301204601229C
:105660008DF80350FEF706F84FF090404FF40041DC
:105670000122FCF72FFE4FF090404FF40041002232
:10568000FCF728FE4FF090404FF480510122FCF7C8
:1056900021FE15208DF803000DF1030120460122A3
:1056A000FDF7E8FF4FF090404FF400410122FCF776
:1056B00011FE4FF090404FF400410022FCF70AFE2B
:1056C0004FF090404FF480510122FCF703FE172069
:1056D0008DF803000DF1030120460122FDF7CAFFFA
:1056E0004FF090404FF400410122FCF7F3FD4FF0E2
:1056F00090404FF400410022FCF7ECFD4FF0904049
:105700004FF480510122FCF7E5FD07208DF80300DE
:105710000DF1030120460122FDF7ACFF4FF0904050
:105720004FF400410122FCF7D5FD4FF090404FF4BB
:1057300000410022FCF7CEFD4FF090404FF4805125
:105740000122FCF7C7FD4FF0110A0DF103012046BD
:1057500001228DF803A0FDF78DFF4FF090404FF42C
:1057600000410122FCF7B6FD4FF090404FF400419C
:105770000022FCF7AFFD4FF090404FF48051012222
:10578000FCF7A8FD06208DF803000DF1030120466B
:105790000122FDF76FFF4FF090404FF400410122CE
:1057A000FCF798FD4FF090404FF400410022FCF7C9
:1057B00091FD4FF090404FF480510122FCF78AFD9B
:1057C0002B270DF10301204601228DF80370FDF710
:1057D00051FF4FF090404FF400410122FCF77AFD59
:1057E0004FF090404FF400410022FCF773FD4FF062
:1057F00090404FF480510122FCF76CFD56208DF84B
:1058000003000DF1030120460122FDF733FF4FF0A5
:1058100090404FF400410122FCF75CFD4FF09040B6
:105820004FF400410022FCF755FD4FF090404FF43B
:1058300080510122FCF74EFD3C208DF803000DF154
:10584000030120460122FDF715FF4FF090404FF471
:1058500000410122FCF73EFD4FF090404FF4004123
:105860000022FCF737FD4FF090404FF480510122A9
:10587000FCF730FD05208DF803000DF103012046F3
:105880000122FDF7F7FE4FF090404FF40041012256
:10589000FCF720FD4FF090404FF400410022FCF750
:1058A00019FD4FF090404FF480510122FCF712FD9A
:1058B00010208DF803000DF1030120460122FDF7B1
:1058C000D9FE4FF090404FF400410122FCF702FD59
:1058D0004FF090404FF400410022FCF7FBFC4FF0EA
:1058E00090404FF480510122FCF7F4FC0DF10301CC
:1058F000204601228DF80380FDF7BCFE4FF090405A
:105900004FF400410122FCF7E5FC4FF090404FF4CA
:1059100000410022FCF7DEFC4FF090404FF4805134
:105920000122FCF7D7FC3F260DF10301204601229E
:105930008DF80360FDF79EFE4FF090404FF400415C
:105940000122FCF7C7FC4FF090404FF400410022C9
:10595000FCF7C0FC4FF090404FF480510122FCF75F
:10596000B9FC0DF10301204601228DF80360FDF71B
:1059700081FE4FF090404FF400410122FCF7AAFC59
:105980004FF090404FF400410022FCF7A3FC4FF091
:1059900090404FF480510122FCF79CFC0DF1030173
:1059A000204601228DF80380FDF764FE4FF0904001
:1059B0004FF400410122FCF78DFC4FF090404FF472
:1059C00000410022FCF786FC4FF090404FF48051DC
:1059D0000022FCF77FFC0DF10301204601228DF827
:1059E0000370FDF747FE4FF090404FF40041012255
:1059F000FCF770FC4FF090404FF400410022FCF7A0
:105A000069FC4FF090404FF480510122FCF762FC9A
:105A10000DF10301204601228DF80350FDF72AFE07
:105A20004FF090404FF400410122FCF753FC4FF03F
:105A300090404FF400410022FCF74CFC4FF09040A6
:105A40004FF480510122FCF745FC0DF10301204683
:105A500001228DF80350FDF70DFE4FF090404FF4FA
:105A600000410122FCF736FC4FF090404FF400411A
:105A70000022FCF72FFC4FF090404FF480510122A0
:105A8000FCF728FC0DF10301204601228DF803905C
:105A9000FDF7F0FD4FF090404FF400410122FCF77C
:105AA00019FC4FF090404FF400410022FCF712FC2B
:105AB0004FF090404FF480510122FCF70BFC0DF1A8
:105AC0000301204601228DF80360FDF7D3FD4FF05E
:105AD00090404FF400410122FCF7FCFB4FF0904056
